{
  "_format": "hh3-artifact-1",
  "contractName": "LandshareBuySale",
  "sourceName": "contracts/LandshareBuySale.sol",
  "abi": [
    {
      "inputs": [
        {
          "internalType": "address",
          "name": "_whitelist",
          "type": "address"
        },
        {
          "internalType": "address",
          "name": "securities",
          "type": "address"
        },
        {
          "internalType": "uint256",
          "name": "offeringPrice",
          "type": "uint256"
        },
        {
          "internalType": "address",
          "name": "priceOracle",
          "type": "address"
        },
        {
          "internalType": "address[]",
          "name": "stableCoinsToUse",
          "type": "address[]"
        },
        {
          "internalType": "address",
          "name": "land",
          "type": "address"
        },
        {
          "internalType": "uint256",
          "name": "landPercent",
          "type": "uint256"
        },
        {
          "internalType": "address",
          "name": "initialOwner",
          "type": "address"
        }
      ],
      "stateMutability": "nonpayable",
      "type": "constructor"
    },
    {
      "inputs": [],
      "name": "AccessControlBadConfirmation",
      "type": "error"
    },
    {
      "inputs": [
        {
          "internalType": "address",
          "name": "account",
          "type": "address"
        },
        {
          "internalType": "bytes32",
          "name": "neededRole",
          "type": "bytes32"
        }
      ],
      "name": "AccessControlUnauthorizedAccount",
      "type": "error"
    },
    {
      "inputs": [
        {
          "internalType": "address",
          "name": "account",
          "type": "address"
        }
      ],
      "name": "AccessDenied",
      "type": "error"
    },
    {
      "inputs": [
        {
          "internalType": "address",
          "name": "token",
          "type": "address"
        }
      ],
      "name": "CoinDoesNotExistInOracle",
      "type": "error"
    },
    {
      "inputs": [
        {
          "internalType": "address",
          "name": "token",
          "type": "address"
        }
      ],
      "name": "CoinIsAlredyAllowed",
      "type": "error"
    },
    {
      "inputs": [
        {
          "internalType": "address",
          "name": "token",
          "type": "address"
        }
      ],
      "name": "CoinIsNotAllowed",
      "type": "error"
    },
    {
      "inputs": [],
      "name": "LANDpercentExeeds50",
      "type": "error"
    },
    {
      "inputs": [],
      "name": "OfferingNotActive",
      "type": "error"
    },
    {
      "inputs": [
        {
          "internalType": "address",
          "name": "owner",
          "type": "address"
        }
      ],
      "name": "OwnableInvalidOwner",
      "type": "error"
    },
    {
      "inputs": [
        {
          "internalType": "address",
          "name": "account",
          "type": "address"
        }
      ],
      "name": "OwnableUnauthorizedAccount",
      "type": "error"
    },
    {
      "inputs": [
        {
          "internalType": "address",
          "name": "token",
          "type": "address"
        }
      ],
      "name": "SafeERC20FailedOperation",
      "type": "error"
    },
    {
      "inputs": [],
      "name": "TokenPurchaseFailed",
      "type": "error"
    },
    {
      "inputs": [],
      "name": "WrongDecimals",
      "type": "error"
    },
    {
      "inputs": [],
      "name": "ZeroValueNotAllowed",
      "type": "error"
    },
    {
      "anonymous": false,
      "inputs": [
        {
          "indexed": false,
          "internalType": "address",
          "name": "buyer",
          "type": "address"
        },
        {
          "indexed": false,
          "internalType": "address",
          "name": "securities",
          "type": "address"
        },
        {
          "indexed": false,
          "internalType": "uint256",
          "name": "amountSecurities",
          "type": "uint256"
        },
        {
          "indexed": false,
          "internalType": "uint256",
          "name": "securityPrice",
          "type": "uint256"
        },
        {
          "indexed": false,
          "internalType": "uint256",
          "name": "securityPriceDecimals",
          "type": "uint256"
        },
        {
          "indexed": false,
          "internalType": "address",
          "name": "purchaseToken",
          "type": "address"
        },
        {
          "indexed": false,
          "internalType": "uint256",
          "name": "purchaseTokenAmount",
          "type": "uint256"
        },
        {
          "indexed": false,
          "internalType": "uint256",
          "name": "purchaceTokenDecimals",
          "type": "uint256"
        },
        {
          "indexed": false,
          "internalType": "address",
          "name": "lAND",
          "type": "address"
        },
        {
          "indexed": false,
          "internalType": "uint256",
          "name": "lANDamount",
          "type": "uint256"
        },
        {
          "indexed": false,
          "internalType": "uint256",
          "name": "lANDdecimals",
          "type": "uint256"
        }
      ],
      "name": "BuyTokensEvent",
      "type": "event"
    },
    {
      "anonymous": false,
      "inputs": [
        {
          "indexed": false,
          "internalType": "address",
          "name": "oldLAND",
          "type": "address"
        },
        {
          "indexed": false,
          "internalType": "address",
          "name": "newLAND",
          "type": "address"
        }
      ],
      "name": "LANDset",
      "type": "event"
    },
    {
      "anonymous": false,
      "inputs": [
        {
          "indexed": true,
          "internalType": "address",
          "name": "previousOwner",
          "type": "address"
        },
        {
          "indexed": true,
          "internalType": "address",
          "name": "newOwner",
          "type": "address"
        }
      ],
      "name": "OwnershipTransferred",
      "type": "event"
    },
    {
      "anonymous": false,
      "inputs": [
        {
          "indexed": false,
          "internalType": "address",
          "name": "oldOracle",
          "type": "address"
        },
        {
          "indexed": false,
          "internalType": "address",
          "name": "newOracle",
          "type": "address"
        },
        {
          "indexed": false,
          "internalType": "address",
          "name": "caller",
          "type": "address"
        }
      ],
      "name": "PriceOracleSet",
      "type": "event"
    },
    {
      "anonymous": false,
      "inputs": [
        {
          "indexed": true,
          "internalType": "bytes32",
          "name": "role",
          "type": "bytes32"
        },
        {
          "indexed": true,
          "internalType": "bytes32",
          "name": "previousAdminRole",
          "type": "bytes32"
        },
        {
          "indexed": true,
          "internalType": "bytes32",
          "name": "newAdminRole",
          "type": "bytes32"
        }
      ],
      "name": "RoleAdminChanged",
      "type": "event"
    },
    {
      "anonymous": false,
      "inputs": [
        {
          "indexed": true,
          "internalType": "bytes32",
          "name": "role",
          "type": "bytes32"
        },
        {
          "indexed": true,
          "internalType": "address",
          "name": "account",
          "type": "address"
        },
        {
          "indexed": true,
          "internalType": "address",
          "name": "sender",
          "type": "address"
        }
      ],
      "name": "RoleGranted",
      "type": "event"
    },
    {
      "anonymous": false,
      "inputs": [
        {
          "indexed": true,
          "internalType": "bytes32",
          "name": "role",
          "type": "bytes32"
        },
        {
          "indexed": true,
          "internalType": "address",
          "name": "account",
          "type": "address"
        },
        {
          "indexed": true,
          "internalType": "address",
          "name": "sender",
          "type": "address"
        }
      ],
      "name": "RoleRevoked",
      "type": "event"
    },
    {
      "anonymous": false,
      "inputs": [
        {
          "indexed": false,
          "internalType": "bool",
          "name": "newStatus",
          "type": "bool"
        }
      ],
      "name": "StatusChangedTo",
      "type": "event"
    },
    {
      "inputs": [],
      "name": "DECIMALS",
      "outputs": [
        {
          "internalType": "uint256",
          "name": "",
          "type": "uint256"
        }
      ],
      "stateMutability": "view",
      "type": "function"
    },
    {
      "inputs": [],
      "name": "DEFAULT_ADMIN_ROLE",
      "outputs": [
        {
          "internalType": "bytes32",
          "name": "",
          "type": "bytes32"
        }
      ],
      "stateMutability": "view",
      "type": "function"
    },
    {
      "inputs": [],
      "name": "LAND",
      "outputs": [
        {
          "internalType": "address",
          "name": "",
          "type": "address"
        }
      ],
      "stateMutability": "view",
      "type": "function"
    },
    {
      "inputs": [],
      "name": "LANDpercent",
      "outputs": [
        {
          "internalType": "uint256",
          "name": "",
          "type": "uint256"
        }
      ],
      "stateMutability": "view",
      "type": "function"
    },
    {
      "inputs": [],
      "name": "PRICE_ORACLE",
      "outputs": [
        {
          "internalType": "address",
          "name": "",
          "type": "address"
        }
      ],
      "stateMutability": "view",
      "type": "function"
    },
    {
      "inputs": [],
      "name": "SECURITIES",
      "outputs": [
        {
          "internalType": "address",
          "name": "",
          "type": "address"
        }
      ],
      "stateMutability": "view",
      "type": "function"
    },
    {
      "inputs": [],
      "name": "TECHNICAL_ROLE",
      "outputs": [
        {
          "internalType": "bytes32",
          "name": "",
          "type": "bytes32"
        }
      ],
      "stateMutability": "view",
      "type": "function"
    },
    {
      "inputs": [
        {
          "internalType": "address",
          "name": "token",
          "type": "address"
        }
      ],
      "name": "addAllowedToken",
      "outputs": [
        {
          "internalType": "bool",
          "name": "",
          "type": "bool"
        }
      ],
      "stateMutability": "nonpayable",
      "type": "function"
    },
    {
      "inputs": [
        {
          "internalType": "address",
          "name": "",
          "type": "address"
        }
      ],
      "name": "allowedToken",
      "outputs": [
        {
          "internalType": "bool",
          "name": "",
          "type": "bool"
        }
      ],
      "stateMutability": "view",
      "type": "function"
    },
    {
      "inputs": [
        {
          "internalType": "uint256",
          "name": "amountOfSecurities",
          "type": "uint256"
        },
        {
          "internalType": "address",
          "name": "stableCoinAddress",
          "type": "address"
        }
      ],
      "name": "buyToken",
      "outputs": [
        {
          "internalType": "bool",
          "name": "",
          "type": "bool"
        }
      ],
      "stateMutability": "nonpayable",
      "type": "function"
    },
    {
      "inputs": [
        {
          "internalType": "uint256",
          "name": "amountOfSecurities",
          "type": "uint256"
        },
        {
          "internalType": "address",
          "name": "stableCoinAddress",
          "type": "address"
        }
      ],
      "name": "buyTokenView",
      "outputs": [
        {
          "internalType": "uint256",
          "name": "amountOfStableCoin",
          "type": "uint256"
        },
        {
          "internalType": "uint256",
          "name": "amountOfLAND",
          "type": "uint256"
        },
        {
          "internalType": "uint256",
          "name": "amountOfSecurities_",
          "type": "uint256"
        }
      ],
      "stateMutability": "view",
      "type": "function"
    },
    {
      "inputs": [],
      "name": "changeStatus",
      "outputs": [],
      "stateMutability": "nonpayable",
      "type": "function"
    },
    {
      "inputs": [],
      "name": "getAllowedStableCoins",
      "outputs": [
        {
          "internalType": "address[]",
          "name": "",
          "type": "address[]"
        }
      ],
      "stateMutability": "view",
      "type": "function"
    },
    {
      "inputs": [
        {
          "internalType": "address",
          "name": "user",
          "type": "address"
        }
      ],
      "name": "getIsWhitelistedAddress",
      "outputs": [
        {
          "internalType": "bool",
          "name": "",
          "type": "bool"
        }
      ],
      "stateMutability": "view",
      "type": "function"
    },
    {
      "inputs": [
        {
          "internalType": "bytes32",
          "name": "role",
          "type": "bytes32"
        }
      ],
      "name": "getRoleAdmin",
      "outputs": [
        {
          "internalType": "bytes32",
          "name": "",
          "type": "bytes32"
        }
      ],
      "stateMutability": "view",
      "type": "function"
    },
    {
      "inputs": [
        {
          "internalType": "bytes32",
          "name": "role",
          "type": "bytes32"
        },
        {
          "internalType": "address",
          "name": "account",
          "type": "address"
        }
      ],
      "name": "grantRole",
      "outputs": [],
      "stateMutability": "nonpayable",
      "type": "function"
    },
    {
      "inputs": [
        {
          "internalType": "bytes32",
          "name": "role",
          "type": "bytes32"
        },
        {
          "internalType": "address",
          "name": "account",
          "type": "address"
        }
      ],
      "name": "hasRole",
      "outputs": [
        {
          "internalType": "bool",
          "name": "",
          "type": "bool"
        }
      ],
      "stateMutability": "view",
      "type": "function"
    },
    {
      "inputs": [],
      "name": "offeringSecurityToUSDPrice",
      "outputs": [
        {
          "internalType": "uint256",
          "name": "",
          "type": "uint256"
        }
      ],
      "stateMutability": "view",
      "type": "function"
    },
    {
      "inputs": [
        {
          "internalType": "address",
          "name": "",
          "type": "address"
        },
        {
          "internalType": "address",
          "name": "",
          "type": "address"
        },
        {
          "internalType": "uint256",
          "name": "",
          "type": "uint256"
        },
        {
          "internalType": "uint256",
          "name": "",
          "type": "uint256"
        },
        {
          "internalType": "bytes",
          "name": "",
          "type": "bytes"
        }
      ],
      "name": "onERC1155Received",
      "outputs": [
        {
          "internalType": "bytes4",
          "name": "",
          "type": "bytes4"
        }
      ],
      "stateMutability": "pure",
      "type": "function"
    },
    {
      "inputs": [
        {
          "internalType": "address",
          "name": "",
          "type": "address"
        },
        {
          "internalType": "address",
          "name": "",
          "type": "address"
        },
        {
          "internalType": "uint256",
          "name": "",
          "type": "uint256"
        },
        {
          "internalType": "bytes",
          "name": "",
          "type": "bytes"
        }
      ],
      "name": "onERC721Received",
      "outputs": [
        {
          "internalType": "bytes4",
          "name": "",
          "type": "bytes4"
        }
      ],
      "stateMutability": "pure",
      "type": "function"
    },
    {
      "inputs": [],
      "name": "owner",
      "outputs": [
        {
          "internalType": "address",
          "name": "",
          "type": "address"
        }
      ],
      "stateMutability": "view",
      "type": "function"
    },
    {
      "inputs": [],
      "name": "percentage",
      "outputs": [
        {
          "internalType": "uint256",
          "name": "",
          "type": "uint256"
        }
      ],
      "stateMutability": "view",
      "type": "function"
    },
    {
      "inputs": [
        {
          "internalType": "address",
          "name": "token",
          "type": "address"
        }
      ],
      "name": "removeTokenFromAllowed",
      "outputs": [
        {
          "internalType": "bool",
          "name": "",
          "type": "bool"
        }
      ],
      "stateMutability": "nonpayable",
      "type": "function"
    },
    {
      "inputs": [],
      "name": "renounceOwnership",
      "outputs": [],
      "stateMutability": "nonpayable",
      "type": "function"
    },
    {
      "inputs": [
        {
          "internalType": "bytes32",
          "name": "role",
          "type": "bytes32"
        },
        {
          "internalType": "address",
          "name": "callerConfirmation",
          "type": "address"
        }
      ],
      "name": "renounceRole",
      "outputs": [],
      "stateMutability": "nonpayable",
      "type": "function"
    },
    {
      "inputs": [
        {
          "internalType": "bytes32",
          "name": "role",
          "type": "bytes32"
        },
        {
          "internalType": "address",
          "name": "account",
          "type": "address"
        }
      ],
      "name": "revokeRole",
      "outputs": [],
      "stateMutability": "nonpayable",
      "type": "function"
    },
    {
      "inputs": [
        {
          "internalType": "uint256",
          "name": "amount",
          "type": "uint256"
        },
        {
          "internalType": "address",
          "name": "token",
          "type": "address"
        }
      ],
      "name": "sendBack",
      "outputs": [
        {
          "internalType": "bool",
          "name": "",
          "type": "bool"
        }
      ],
      "stateMutability": "nonpayable",
      "type": "function"
    },
    {
      "inputs": [
        {
          "internalType": "address",
          "name": "newLANDaddress",
          "type": "address"
        }
      ],
      "name": "setLAND",
      "outputs": [],
      "stateMutability": "nonpayable",
      "type": "function"
    },
    {
      "inputs": [
        {
          "internalType": "uint256",
          "name": "newLandPercent",
          "type": "uint256"
        }
      ],
      "name": "setLANDpercent",
      "outputs": [],
      "stateMutability": "nonpayable",
      "type": "function"
    },
    {
      "inputs": [
        {
          "internalType": "uint256",
          "name": "priceInUSD",
          "type": "uint256"
        }
      ],
      "name": "setPrice",
      "outputs": [],
      "stateMutability": "nonpayable",
      "type": "function"
    },
    {
      "inputs": [
        {
          "internalType": "address",
          "name": "newPriceOracle",
          "type": "address"
        }
      ],
      "name": "setPriceOracle",
      "outputs": [],
      "stateMutability": "nonpayable",
      "type": "function"
    },
    {
      "inputs": [
        {
          "internalType": "address",
          "name": "newWhitelist",
          "type": "address"
        }
      ],
      "name": "setWhitelist",
      "outputs": [],
      "stateMutability": "nonpayable",
      "type": "function"
    },
    {
      "inputs": [],
      "name": "status",
      "outputs": [
        {
          "internalType": "bool",
          "name": "",
          "type": "bool"
        }
      ],
      "stateMutability": "view",
      "type": "function"
    },
    {
      "inputs": [
        {
          "internalType": "bytes4",
          "name": "interfaceId",
          "type": "bytes4"
        }
      ],
      "name": "supportsInterface",
      "outputs": [
        {
          "internalType": "bool",
          "name": "",
          "type": "bool"
        }
      ],
      "stateMutability": "view",
      "type": "function"
    },
    {
      "inputs": [
        {
          "internalType": "address",
          "name": "newOwner",
          "type": "address"
        }
      ],
      "name": "transferOwnership",
      "outputs": [],
      "stateMutability": "nonpayable",
      "type": "function"
    },
    {
      "inputs": [],
      "name": "whitelistContract",
      "outputs": [
        {
          "internalType": "contract IWhitelist",
          "name": "",
          "type": "address"
        }
      ],
      "stateMutability": "view",
      "type": "function"
    }
  ],
  "bytecode": "0x608060405234801561000f575f5ffd5b50604051613382380380613382833981810160405281019061003191906107b5565b805f73ffffffffffffffffffffffffffffffffffffffff168173ffffffffffffffffffffffffffffffffffffffff16036100a2575f6040517f1e4fbdf70000000000000000000000000000000000000000000000000000000081526004016100999190610891565b60405180910390fd5b6100b1816103a660201b60201c565b5087600760016101000a81548173ffffffffffffffffffffffffffffffffffffffff021916908373ffffffffffffffffffffffffffffffffffffffff1602179055508660025f6101000a81548173ffffffffffffffffffffffffffffffffffffffff021916908373ffffffffffffffffffffffffffffffffffffffff160217905550856005819055508460035f6101000a81548173ffffffffffffffffffffffffffffffffffffffff021916908373ffffffffffffffffffffffffffffffffffffffff1602179055508260045f6101000a81548173ffffffffffffffffffffffffffffffffffffffff021916908373ffffffffffffffffffffffffffffffffffffffff16021790555060328211156101f5576040517ff92568b000000000000000000000000000000000000000000000000000000000815260040160405180910390fd5b81600681905550600160075f6101000a81548160ff0219169083151502179055506102285f5f1b8261046760201b60201c565b506102597ff1003c818ac400b04d0532342ab6840e13256c3eda7edcf0182834ef0bf030ea8261046760201b60201c565b505f5f90505b8451811015610398575f85828151811061027c5761027b6108aa565b5b6020026020010151905060085f8273ffffffffffffffffffffffffffffffffffffffff1673ffffffffffffffffffffffffffffffffffffffff1681526020019081526020015f205f9054906101000a900460ff1661038a57600160085f8373ffffffffffffffffffffffffffffffffffffffff1673ffffffffffffffffffffffffffffffffffffffff1681526020019081526020015f205f6101000a81548160ff021916908315150217905550600981908060018154018082558091505060019003905f5260205f20015f9091909190916101000a81548173ffffffffffffffffffffffffffffffffffffffff021916908373ffffffffffffffffffffffffffffffffffffffff1602179055505b50808060010191505061025f565b5050505050505050506108d7565b5f5f5f9054906101000a900473ffffffffffffffffffffffffffffffffffffffff169050815f5f6101000a81548173ffffffffffffffffffffffffffffffffffffffff021916908373ffffffffffffffffffffffffffffffffffffffff1602179055508173ffffffffffffffffffffffffffffffffffffffff168173ffffffffffffffffffffffffffffffffffffffff167f8be0079c531659141344cd1fd0a4f28419497f9722a3daafe3b4186f6b6457e060405160405180910390a35050565b5f610478838361055c60201b60201c565b610552576001805f8581526020019081526020015f205f015f8473ffffffffffffffffffffffffffffffffffffffff1673ffffffffffffffffffffffffffffffffffffffff1681526020019081526020015f205f6101000a81548160ff0219169083151502179055506104ef6105c060201b60201c565b73ffffffffffffffffffffffffffffffffffffffff168273ffffffffffffffffffffffffffffffffffffffff16847f2f8788117e7eff1d82e926ec794901d17c78024a50270940304540a733656f0d60405160405180910390a460019050610556565b5f90505b92915050565b5f60015f8481526020019081526020015f205f015f8373ffffffffffffffffffffffffffffffffffffffff1673ffffffffffffffffffffffffffffffffffffffff1681526020019081526020015f205f9054906101000a900460ff16905092915050565b5f33905090565b5f604051905090565b5f5ffd5b5f5ffd5b5f73ffffffffffffffffffffffffffffffffffffffff82169050919050565b5f610601826105d8565b9050919050565b610611816105f7565b811461061b575f5ffd5b50565b5f8151905061062c81610608565b92915050565b5f819050919050565b61064481610632565b811461064e575f5ffd5b50565b5f8151905061065f8161063b565b92915050565b5f5ffd5b5f601f19601f8301169050919050565b7f4e487b71000000000000000000000000000000000000000000000000000000005f52604160045260245ffd5b6106af82610669565b810181811067ffffffffffffffff821117156106ce576106cd610679565b5b80604052505050565b5f6106e06105c7565b90506106ec82826106a6565b919050565b5f67ffffffffffffffff82111561070b5761070a610679565b5b602082029050602081019050919050565b5f5ffd5b5f61073261072d846106f1565b6106d7565b905080838252602082019050602084028301858111156107555761075461071c565b5b835b8181101561077e578061076a888261061e565b845260208401935050602081019050610757565b5050509392505050565b5f82601f83011261079c5761079b610665565b5b81516107ac848260208601610720565b91505092915050565b5f5f5f5f5f5f5f5f610100898b0312156107d2576107d16105d0565b5b5f6107df8b828c0161061e565b98505060206107f08b828c0161061e565b97505060406108018b828c01610651565b96505060606108128b828c0161061e565b955050608089015167ffffffffffffffff811115610833576108326105d4565b5b61083f8b828c01610788565b94505060a06108508b828c0161061e565b93505060c06108618b828c01610651565b92505060e06108728b828c0161061e565b9150509295985092959890939650565b61088b816105f7565b82525050565b5f6020820190506108a45f830184610882565b92915050565b7f4e487b71000000000000000000000000000000000000000000000000000000005f52603260045260245ffd5b612a9e806108e45f395ff3fe608060405234801561000f575f5ffd5b506004361061021a575f3560e01c8063854cff2f11610123578063c78ad77f116100ab578063e457b2d51161007a578063e457b2d514610640578063f23a6e611461065c578063f2fde38b1461068c578063fe7fe7fd146106a8578063fe99f9dc146106c65761021a565b8063c78ad77f146105ca578063ce89205b146105e8578063d547741f14610606578063d765267e146106225761021a565b806391b7f5ed116100f257806391b7f5ed1461051257806391d148541461052e57806391e89fda1461055e578063a217fddf1461058e578063ab374741146105ac5761021a565b8063854cff2f1461048a5780638da5cb5b146104a65780638df53e5a146104c45780639134709e146104e25761021a565b80632e0f2625116101a6578063530e784f11610175578063530e784f146103fa57806366ca225c14610416578063715018a614610432578063756742f81461043c57806384900b041461046c5761021a565b80632e0f2625146103745780632f2ff15d1461039257806336568abe146103ae5780634178617f146103ca5761021a565b8063150b7a02116101ed578063150b7a02146102a657806316aee1bd146102d65780631d379409146102f4578063200d2ed214610326578063248a9ca3146103445761021a565b806301ffc9a71461021e578063038aabcf1461024e578063085634ec1461027e5780630a19399a14610288575b5f5ffd5b61023860048036038101906102339190611ee0565b6106f6565b6040516102459190611f25565b60405180910390f35b61026860048036038101906102639190611fcb565b610707565b6040516102759190611f25565b60405180910390f35b610286610745565b005b6102906107bc565b60405161029d9190612018565b60405180910390f35b6102c060048036038101906102bb9190612092565b6107e1565b6040516102cd9190612125565b60405180910390f35b6102de6107f5565b6040516102eb919061214d565b60405180910390f35b61030e60048036038101906103099190611fcb565b6107fe565b60405161031d93929190612166565b60405180910390f35b61032e610c3b565b60405161033b9190611f25565b60405180910390f35b61035e600480360381019061035991906121ce565b610c4d565b60405161036b9190612208565b60405180910390f35b61037c610c6a565b604051610389919061214d565b60405180910390f35b6103ac60048036038101906103a79190612221565b610c76565b005b6103c860048036038101906103c39190612221565b610c98565b005b6103e460048036038101906103df919061225f565b610d13565b6040516103f19190611f25565b60405180910390f35b610414600480360381019061040f919061225f565b610e66565b005b610430600480360381019061042b919061225f565b610f12565b005b61043a610fbc565b005b6104566004803603810190610451919061225f565b610fcf565b6040516104639190611f25565b60405180910390f35b610474610fec565b60405161048191906122e5565b60405180910390f35b6104a4600480360381019061049f919061225f565b611012565b005b6104ae61105e565b6040516104bb9190612018565b60405180910390f35b6104cc611085565b6040516104d99190612018565b60405180910390f35b6104fc60048036038101906104f79190611fcb565b6110aa565b6040516105099190611f25565b60405180910390f35b61052c600480360381019061052791906122fe565b61130a565b005b61054860048036038101906105439190612221565b61131c565b6040516105559190611f25565b60405180910390f35b6105786004803603810190610573919061225f565b611380565b6040516105859190611f25565b60405180910390f35b6105966115ee565b6040516105a39190612208565b60405180910390f35b6105b46115f4565b6040516105c19190612208565b60405180910390f35b6105d2611618565b6040516105df919061214d565b60405180910390f35b6105f061161e565b6040516105fd9190612018565b60405180910390f35b610620600480360381019061061b9190612221565b611643565b005b61062a611665565b60405161063791906123e0565b60405180910390f35b61065a600480360381019061065591906122fe565b6116f0565b005b61067660048036038101906106719190612400565b61173d565b6040516106839190612125565b60405180910390f35b6106a660048036038101906106a1919061225f565b611752565b005b6106b06117d6565b6040516106bd919061214d565b60405180910390f35b6106e060048036038101906106db919061225f565b6117dc565b6040516106ed9190611f25565b60405180910390f35b5f6107008261187e565b9050919050565b5f6107106118f7565b61073b33848473ffffffffffffffffffffffffffffffffffffffff1661197e9092919063ffffffff16565b6001905092915050565b61074d6118f7565b60075f9054906101000a900460ff161560075f6101000a81548160ff0219169083151502179055507f86ef200ba23f783d620bfb90e5e4ba7530c331af8fe1ed3098b329a903faff1b60075f9054906101000a900460ff166040516107b29190611f25565b60405180910390a1565b60035f9054906101000a900473ffffffffffffffffffffffffffffffffffffffff1681565b5f63150b7a0260e01b905095945050505050565b5f600654905090565b5f5f5f5f850361083a576040517f9cf8540c00000000000000000000000000000000000000000000000000000000815260040160405180910390fd5b60085f8573ffffffffffffffffffffffffffffffffffffffff1673ffffffffffffffffffffffffffffffffffffffff1681526020019081526020015f205f9054906101000a900460ff166108c557836040517f2ef1fd620000000000000000000000000000000000000000000000000000000081526004016108bc9190612018565b60405180910390fd5b5f60035f9054906101000a900473ffffffffffffffffffffffffffffffffffffffff1673ffffffffffffffffffffffffffffffffffffffff16633b377dcf610348875f6040518463ffffffff1660e01b8152600401610926939291906124cf565b6040805180830381865afa158015610940573d5f5f3e3d5ffd5b505050506040513d601f19601f820116820180604052508101906109649190612542565b9150505f81036109ab57846040517f4469fb1c0000000000000000000000000000000000000000000000000000000081526004016109a29190612018565b60405180910390fd5b5f60035f9054906101000a900473ffffffffffffffffffffffffffffffffffffffff1673ffffffffffffffffffffffffffffffffffffffff166330f08abd6040518163ffffffff1660e01b8152600401602060405180830381865afa158015610a16573d5f5f3e3d5ffd5b505050506040513d601f19601f82011682018060405250810190610a3a9190612580565b90505f60055488610a4b91906125d8565b90505f60646006546064610a5f9190612619565b83610a6a91906125d8565b610a749190612679565b9050670de0b6b3a76400008484600a610a8d91906127d8565b83610a9891906125d8565b610aa29190612679565b610aac9190612679565b96505f606460065484610abf91906125d8565b610ac99190612679565b90505f60035f9054906101000a900473ffffffffffffffffffffffffffffffffffffffff1673ffffffffffffffffffffffffffffffffffffffff16633b377dcf61034860045f9054906101000a900473ffffffffffffffffffffffffffffffffffffffff165f6040518463ffffffff1660e01b8152600401610b4d939291906124cf565b6040805180830381865afa158015610b67573d5f5f3e3d5ffd5b505050506040513d601f19601f82011682018060405250810190610b8b9190612542565b9150505f8103610bf35760045f9054906101000a900473ffffffffffffffffffffffffffffffffffffffff166040517f4469fb1c000000000000000000000000000000000000000000000000000000008152600401610bea9190612018565b60405180910390fd5b670de0b6b3a76400008186600a610c0a91906127d8565b84610c1591906125d8565b610c1f9190612679565b610c299190612679565b97508a96505050505050509250925092565b60075f9054906101000a900460ff1681565b5f60015f8381526020019081526020015f20600101549050919050565b670de0b6b3a764000081565b610c7f82610c4d565b610c88816119fd565b610c928383611a11565b50505050565b610ca0611afa565b73ffffffffffffffffffffffffffffffffffffffff168173ffffffffffffffffffffffffffffffffffffffff1614610d04576040517f6697b23200000000000000000000000000000000000000000000000000000000815260040160405180910390fd5b610d0e8282611b01565b505050565b5f610d1c6118f7565b60085f8373ffffffffffffffffffffffffffffffffffffffff1673ffffffffffffffffffffffffffffffffffffffff1681526020019081526020015f205f9054906101000a900460ff1615610da857816040517f412987be000000000000000000000000000000000000000000000000000000008152600401610d9f9190612018565b60405180910390fd5b600160085f8473ffffffffffffffffffffffffffffffffffffffff1673ffffffffffffffffffffffffffffffffffffffff1681526020019081526020015f205f6101000a81548160ff021916908315150217905550600982908060018154018082558091505060019003905f5260205f20015f9091909190916101000a81548173ffffffffffffffffffffffffffffffffffffffff021916908373ffffffffffffffffffffffffffffffffffffffff16021790555060019050919050565b610e6e6118f7565b5f60035f9054906101000a900473ffffffffffffffffffffffffffffffffffffffff1690508160035f6101000a81548173ffffffffffffffffffffffffffffffffffffffff021916908373ffffffffffffffffffffffffffffffffffffffff1602179055507f45fe2576c524e253513eeb3446e7619391aea30f4b6d8cf9809acccd7df542a6818333604051610f0693929190612822565b60405180910390a15050565b610f1a6118f7565b5f60045f9054906101000a900473ffffffffffffffffffffffffffffffffffffffff1690508160045f6101000a81548173ffffffffffffffffffffffffffffffffffffffff021916908373ffffffffffffffffffffffffffffffffffffffff1602179055507fd7ab41cb30ff7e560aa8f7762a1d3213511c2126e605583b40f211e4ad0fa7618183604051610fb0929190612857565b60405180910390a15050565b610fc46118f7565b610fcd5f611beb565b565b6008602052805f5260405f205f915054906101000a900460ff1681565b600760019054906101000a900473ffffffffffffffffffffffffffffffffffffffff1681565b61101a6118f7565b80600760016101000a81548173ffffffffffffffffffffffffffffffffffffffff021916908373ffffffffffffffffffffffffffffffffffffffff16021790555050565b5f5f5f9054906101000a900473ffffffffffffffffffffffffffffffffffffffff16905090565b60025f9054906101000a900473ffffffffffffffffffffffffffffffffffffffff1681565b5f60075f9054906101000a900460ff166110f0576040517fff76d12f00000000000000000000000000000000000000000000000000000000815260040160405180910390fd5b600760019054906101000a900473ffffffffffffffffffffffffffffffffffffffff1673ffffffffffffffffffffffffffffffffffffffff16633af32abf336040518263ffffffff1660e01b815260040161114b9190612018565b602060405180830381865afa158015611166573d5f5f3e3d5ffd5b505050506040513d601f19601f8201168201806040525081019061118a919061287e565b6111cb57336040517f0504a20d0000000000000000000000000000000000000000000000000000000081526004016111c29190612018565b60405180910390fd5b5f5f6111d785856107fe565b5091509150611210336111e861105e565b848773ffffffffffffffffffffffffffffffffffffffff16611cac909392919063ffffffff16565b6112653361121c61105e565b8360045f9054906101000a900473ffffffffffffffffffffffffffffffffffffffff1673ffffffffffffffffffffffffffffffffffffffff16611cac909392919063ffffffff16565b7fcc8d9e2e9e36b5aac867220d561daa8424fe50ced08917be294b4f55168caf8f3360025f9054906101000a900473ffffffffffffffffffffffffffffffffffffffff1687600554670de0b6b3a76400008988601260045f9054906101000a900473ffffffffffffffffffffffffffffffffffffffff168a60126040516112f69b9a999897969594939291906128e2565b60405180910390a160019250505092915050565b6113126118f7565b8060058190555050565b5f60015f8481526020019081526020015f205f015f8373ffffffffffffffffffffffffffffffffffffffff1673ffffffffffffffffffffffffffffffffffffffff1681526020019081526020015f205f9054906101000a900460ff16905092915050565b5f6113896118f7565b60085f8373ffffffffffffffffffffffffffffffffffffffff1673ffffffffffffffffffffffffffffffffffffffff1681526020019081526020015f205f9054906101000a900460ff1661141457816040517f2ef1fd6200000000000000000000000000000000000000000000000000000000815260040161140b9190612018565b60405180910390fd5b5f60085f8473ffffffffffffffffffffffffffffffffffffffff1673ffffffffffffffffffffffffffffffffffffffff1681526020019081526020015f205f6101000a81548160ff0219169083151502179055505f5f90505b6009805490508110156115e4578273ffffffffffffffffffffffffffffffffffffffff16600982815481106114a5576114a461298b565b5b905f5260205f20015f9054906101000a900473ffffffffffffffffffffffffffffffffffffffff1673ffffffffffffffffffffffffffffffffffffffff16036115d757600960016009805490506114fc9190612619565b8154811061150d5761150c61298b565b5b905f5260205f20015f9054906101000a900473ffffffffffffffffffffffffffffffffffffffff16600982815481106115495761154861298b565b5b905f5260205f20015f6101000a81548173ffffffffffffffffffffffffffffffffffffffff021916908373ffffffffffffffffffffffffffffffffffffffff16021790555060098054806115a05761159f6129b8565b5b600190038181905f5260205f20015f6101000a81549073ffffffffffffffffffffffffffffffffffffffff021916905590556115e4565b808060010191505061146d565b5060019050919050565b5f5f1b81565b7ff1003c818ac400b04d0532342ab6840e13256c3eda7edcf0182834ef0bf030ea81565b60065481565b60045f9054906101000a900473ffffffffffffffffffffffffffffffffffffffff1681565b61164c82610c4d565b611655816119fd565b61165f8383611b01565b50505050565b606060098054806020026020016040519081016040528092919081815260200182805480156116e657602002820191905f5260205f20905b815f9054906101000a900473ffffffffffffffffffffffffffffffffffffffff1673ffffffffffffffffffffffffffffffffffffffff168152602001906001019080831161169d575b5050505050905090565b6116f86118f7565b6032811115611733576040517ff92568b000000000000000000000000000000000000000000000000000000000815260040160405180910390fd5b8060068190555050565b5f63f23a6e6160e01b90509695505050505050565b61175a6118f7565b5f73ffffffffffffffffffffffffffffffffffffffff168173ffffffffffffffffffffffffffffffffffffffff16036117ca575f6040517f1e4fbdf70000000000000000000000000000000000000000000000000000000081526004016117c19190612018565b60405180910390fd5b6117d381611beb565b50565b60055481565b5f600760019054906101000a900473ffffffffffffffffffffffffffffffffffffffff1673ffffffffffffffffffffffffffffffffffffffff16633af32abf836040518263ffffffff1660e01b81526004016118389190612018565b602060405180830381865afa158015611853573d5f5f3e3d5ffd5b505050506040513d601f19601f82011682018060405250810190611877919061287e565b9050919050565b5f7f7965db0b000000000000000000000000000000000000000000000000000000007bffffffffffffffffffffffffffffffffffffffffffffffffffffffff1916827bffffffffffffffffffffffffffffffffffffffffffffffffffffffff191614806118f057506118ef82611d2e565b5b9050919050565b6118ff611afa565b73ffffffffffffffffffffffffffffffffffffffff1661191d61105e565b73ffffffffffffffffffffffffffffffffffffffff161461197c57611940611afa565b6040517f118cdaa70000000000000000000000000000000000000000000000000000000081526004016119739190612018565b60405180910390fd5b565b6119f8838473ffffffffffffffffffffffffffffffffffffffff1663a9059cbb85856040516024016119b19291906129e5565b604051602081830303815290604052915060e01b6020820180517bffffffffffffffffffffffffffffffffffffffffffffffffffffffff8381831617835250505050611d97565b505050565b611a0e81611a09611afa565b611e32565b50565b5f611a1c838361131c565b611af0576001805f8581526020019081526020015f205f015f8473ffffffffffffffffffffffffffffffffffffffff1673ffffffffffffffffffffffffffffffffffffffff1681526020019081526020015f205f6101000a81548160ff021916908315150217905550611a8d611afa565b73ffffffffffffffffffffffffffffffffffffffff168273ffffffffffffffffffffffffffffffffffffffff16847f2f8788117e7eff1d82e926ec794901d17c78024a50270940304540a733656f0d60405160405180910390a460019050611af4565b5f90505b92915050565b5f33905090565b5f611b0c838361131c565b15611be1575f60015f8581526020019081526020015f205f015f8473ffffffffffffffffffffffffffffffffffffffff1673ffffffffffffffffffffffffffffffffffffffff1681526020019081526020015f205f6101000a81548160ff021916908315150217905550611b7e611afa565b73ffffffffffffffffffffffffffffffffffffffff168273ffffffffffffffffffffffffffffffffffffffff16847ff6391f5c32d9c69d2a47ea670b442974b53935d1edc7fd64eb21e047a839171b60405160405180910390a460019050611be5565b5f90505b92915050565b5f5f5f9054906101000a900473ffffffffffffffffffffffffffffffffffffffff169050815f5f6101000a81548173ffffffffffffffffffffffffffffffffffffffff021916908373ffffffffffffffffffffffffffffffffffffffff1602179055508173ffffffffffffffffffffffffffffffffffffffff168173ffffffffffffffffffffffffffffffffffffffff167f8be0079c531659141344cd1fd0a4f28419497f9722a3daafe3b4186f6b6457e060405160405180910390a35050565b611d28848573ffffffffffffffffffffffffffffffffffffffff166323b872dd868686604051602401611ce193929190612a0c565b604051602081830303815290604052915060e01b6020820180517bffffffffffffffffffffffffffffffffffffffffffffffffffffffff8381831617835250505050611d97565b50505050565b5f7f01ffc9a7000000000000000000000000000000000000000000000000000000007bffffffffffffffffffffffffffffffffffffffffffffffffffffffff1916827bffffffffffffffffffffffffffffffffffffffffffffffffffffffff1916149050919050565b5f5f60205f8451602086015f885af180611db6576040513d5f823e3d81fd5b3d92505f519150505f8214611dcf576001811415611dea565b5f8473ffffffffffffffffffffffffffffffffffffffff163b145b15611e2c57836040517f5274afe7000000000000000000000000000000000000000000000000000000008152600401611e239190612018565b60405180910390fd5b50505050565b611e3c828261131c565b611e7f5780826040517fe2517d3f000000000000000000000000000000000000000000000000000000008152600401611e76929190612a41565b60405180910390fd5b5050565b5f5ffd5b5f5ffd5b5f7fffffffff0000000000000000000000000000000000000000000000000000000082169050919050565b611ebf81611e8b565b8114611ec9575f5ffd5b50565b5f81359050611eda81611eb6565b92915050565b5f60208284031215611ef557611ef4611e83565b5b5f611f0284828501611ecc565b91505092915050565b5f8115159050919050565b611f1f81611f0b565b82525050565b5f602082019050611f385f830184611f16565b92915050565b5f819050919050565b611f5081611f3e565b8114611f5a575f5ffd5b50565b5f81359050611f6b81611f47565b92915050565b5f73ffffffffffffffffffffffffffffffffffffffff82169050919050565b5f611f9a82611f71565b9050919050565b611faa81611f90565b8114611fb4575f5ffd5b50565b5f81359050611fc581611fa1565b92915050565b5f5f60408385031215611fe157611fe0611e83565b5b5f611fee85828601611f5d565b9250506020611fff85828601611fb7565b9150509250929050565b61201281611f90565b82525050565b5f60208201905061202b5f830184612009565b92915050565b5f5ffd5b5f5ffd5b5f5ffd5b5f5f83601f84011261205257612051612031565b5b8235905067ffffffffffffffff81111561206f5761206e612035565b5b60208301915083600182028301111561208b5761208a612039565b5b9250929050565b5f5f5f5f5f608086880312156120ab576120aa611e83565b5b5f6120b888828901611fb7565b95505060206120c988828901611fb7565b94505060406120da88828901611f5d565b935050606086013567ffffffffffffffff8111156120fb576120fa611e87565b5b6121078882890161203d565b92509250509295509295909350565b61211f81611e8b565b82525050565b5f6020820190506121385f830184612116565b92915050565b61214781611f3e565b82525050565b5f6020820190506121605f83018461213e565b92915050565b5f6060820190506121795f83018661213e565b612186602083018561213e565b612193604083018461213e565b949350505050565b5f819050919050565b6121ad8161219b565b81146121b7575f5ffd5b50565b5f813590506121c8816121a4565b92915050565b5f602082840312156121e3576121e2611e83565b5b5f6121f0848285016121ba565b91505092915050565b6122028161219b565b82525050565b5f60208201905061221b5f8301846121f9565b92915050565b5f5f6040838503121561223757612236611e83565b5b5f612244858286016121ba565b925050602061225585828601611fb7565b9150509250929050565b5f6020828403121561227457612273611e83565b5b5f61228184828501611fb7565b91505092915050565b5f819050919050565b5f6122ad6122a86122a384611f71565b61228a565b611f71565b9050919050565b5f6122be82612293565b9050919050565b5f6122cf826122b4565b9050919050565b6122df816122c5565b82525050565b5f6020820190506122f85f8301846122d6565b92915050565b5f6020828403121561231357612312611e83565b5b5f61232084828501611f5d565b91505092915050565b5f81519050919050565b5f82825260208201905092915050565b5f819050602082019050919050565b61235b81611f90565b82525050565b5f61236c8383612352565b60208301905092915050565b5f602082019050919050565b5f61238e82612329565b6123988185612333565b93506123a383612343565b805f5b838110156123d35781516123ba8882612361565b97506123c583612378565b9250506001810190506123a6565b5085935050505092915050565b5f6020820190508181035f8301526123f88184612384565b905092915050565b5f5f5f5f5f5f60a0878903121561241a57612419611e83565b5b5f61242789828a01611fb7565b965050602061243889828a01611fb7565b955050604061244989828a01611f5d565b945050606061245a89828a01611f5d565b935050608087013567ffffffffffffffff81111561247b5761247a611e87565b5b61248789828a0161203d565b92509250509295509295509295565b5f819050919050565b5f6124b96124b46124af84612496565b61228a565b611f3e565b9050919050565b6124c98161249f565b82525050565b5f6060820190506124e25f8301866124c0565b6124ef6020830185612009565b6124fc6040830184612009565b949350505050565b61250d81611f0b565b8114612517575f5ffd5b50565b5f8151905061252881612504565b92915050565b5f8151905061253c81611f47565b92915050565b5f5f6040838503121561255857612557611e83565b5b5f6125658582860161251a565b92505060206125768582860161252e565b9150509250929050565b5f6020828403121561259557612594611e83565b5b5f6125a28482850161252e565b91505092915050565b7f4e487b71000000000000000000000000000000000000000000000000000000005f52601160045260245ffd5b5f6125e282611f3e565b91506125ed83611f3e565b92508282026125fb81611f3e565b91508282048414831517612612576126116125ab565b5b5092915050565b5f61262382611f3e565b915061262e83611f3e565b9250828203905081811115612646576126456125ab565b5b92915050565b7f4e487b71000000000000000000000000000000000000000000000000000000005f52601260045260245ffd5b5f61268382611f3e565b915061268e83611f3e565b92508261269e5761269d61264c565b5b828204905092915050565b5f8160011c9050919050565b5f5f8291508390505b60018511156126fe578086048111156126da576126d96125ab565b5b60018516156126e95780820291505b80810290506126f7856126a9565b94506126be565b94509492505050565b5f8261271657600190506127d1565b81612723575f90506127d1565b8160018114612739576002811461274357612772565b60019150506127d1565b60ff841115612755576127546125ab565b5b8360020a91508482111561276c5761276b6125ab565b5b506127d1565b5060208310610133831016604e8410600b84101617156127a75782820a9050838111156127a2576127a16125ab565b5b6127d1565b6127b484848460016126b5565b925090508184048111156127cb576127ca6125ab565b5b81810290505b9392505050565b5f6127e282611f3e565b91506127ed83611f3e565b925061281a7fffffffffffffffffffffffffffffffffffffffffffffffffffffffffffffffff8484612707565b905092915050565b5f6060820190506128355f830186612009565b6128426020830185612009565b61284f6040830184612009565b949350505050565b5f60408201905061286a5f830185612009565b6128776020830184612009565b9392505050565b5f6020828403121561289357612892611e83565b5b5f6128a08482850161251a565b91505092915050565b5f819050919050565b5f6128cc6128c76128c2846128a9565b61228a565b611f3e565b9050919050565b6128dc816128b2565b82525050565b5f610160820190506128f65f83018e612009565b612903602083018d612009565b612910604083018c61213e565b61291d606083018b61213e565b61292a608083018a61213e565b61293760a0830189612009565b61294460c083018861213e565b61295160e08301876128d3565b61295f610100830186612009565b61296d61012083018561213e565b61297b6101408301846128d3565b9c9b505050505050505050505050565b7f4e487b71000000000000000000000000000000000000000000000000000000005f52603260045260245ffd5b7f4e487b71000000000000000000000000000000000000000000000000000000005f52603160045260245ffd5b5f6040820190506129f85f830185612009565b612a05602083018461213e565b9392505050565b5f606082019050612a1f5f830186612009565b612a2c6020830185612009565b612a39604083018461213e565b949350505050565b5f604082019050612a545f830185612009565b612a6160208301846121f9565b939250505056fea26469706673582212201da2cd79e5701ca0f76052cca8b4fcd99ad5c375c3b4fdaff8827c1ff08bf7a764736f6c634300081c0033",
  "linkReferences": {},
  "deployedLinkReferences": {},
  "immutableReferences": {},
  "inputSourceName": "project/contracts/LandshareBuySale.sol",
  "buildInfoId": "solc-0_8_28-787626cc0976b2e4dde74fd70f53688257be6357"
}