{
  "_format": "hh3-artifact-1",
  "contractName": "LandshareBuySale",
  "sourceName": "contracts/LandshareBuySale.sol",
  "abi": [
    {
      "inputs": [
        {
          "internalType": "address",
          "name": "_whitelist",
          "type": "address"
        },
        {
          "internalType": "address",
          "name": "securities",
          "type": "address"
        },
        {
          "internalType": "uint256",
          "name": "offeringPrice",
          "type": "uint256"
        },
        {
          "internalType": "address",
          "name": "priceOracle",
          "type": "address"
        },
        {
          "internalType": "address[]",
          "name": "stableCoinsToUse",
          "type": "address[]"
        },
        {
          "internalType": "address",
          "name": "land",
          "type": "address"
        },
        {
          "internalType": "uint256",
          "name": "landPercent",
          "type": "uint256"
        },
        {
          "internalType": "address",
          "name": "initialOwner",
          "type": "address"
        }
      ],
      "stateMutability": "nonpayable",
      "type": "constructor"
    },
    {
      "inputs": [
        {
          "internalType": "address",
          "name": "account",
          "type": "address"
        }
      ],
      "name": "AccessDenied",
      "type": "error"
    },
    {
      "inputs": [
        {
          "internalType": "address",
          "name": "token",
          "type": "address"
        }
      ],
      "name": "CoinDoesNotExistInOracle",
      "type": "error"
    },
    {
      "inputs": [
        {
          "internalType": "address",
          "name": "token",
          "type": "address"
        }
      ],
      "name": "CoinIsAlredyAllowed",
      "type": "error"
    },
    {
      "inputs": [
        {
          "internalType": "address",
          "name": "token",
          "type": "address"
        }
      ],
      "name": "CoinIsNotAllowed",
      "type": "error"
    },
    {
      "inputs": [],
      "name": "LANDpercentExeeds50",
      "type": "error"
    },
    {
      "inputs": [],
      "name": "OfferingNotActive",
      "type": "error"
    },
    {
      "inputs": [
        {
          "internalType": "address",
          "name": "owner",
          "type": "address"
        }
      ],
      "name": "OwnableInvalidOwner",
      "type": "error"
    },
    {
      "inputs": [
        {
          "internalType": "address",
          "name": "account",
          "type": "address"
        }
      ],
      "name": "OwnableUnauthorizedAccount",
      "type": "error"
    },
    {
      "inputs": [
        {
          "internalType": "address",
          "name": "token",
          "type": "address"
        }
      ],
      "name": "SafeERC20FailedOperation",
      "type": "error"
    },
    {
      "inputs": [],
      "name": "TokenPurchaseFailed",
      "type": "error"
    },
    {
      "inputs": [],
      "name": "WrongDecimals",
      "type": "error"
    },
    {
      "inputs": [],
      "name": "ZeroAddressNotAllowed",
      "type": "error"
    },
    {
      "inputs": [],
      "name": "ZeroValueNotAllowed",
      "type": "error"
    },
    {
      "anonymous": false,
      "inputs": [
        {
          "indexed": false,
          "internalType": "address",
          "name": "buyer",
          "type": "address"
        },
        {
          "indexed": false,
          "internalType": "address",
          "name": "securities",
          "type": "address"
        },
        {
          "indexed": false,
          "internalType": "uint256",
          "name": "amountSecurities",
          "type": "uint256"
        },
        {
          "indexed": false,
          "internalType": "uint256",
          "name": "securityPrice",
          "type": "uint256"
        },
        {
          "indexed": false,
          "internalType": "uint256",
          "name": "securityPriceDecimals",
          "type": "uint256"
        },
        {
          "indexed": false,
          "internalType": "address",
          "name": "purchaseToken",
          "type": "address"
        },
        {
          "indexed": false,
          "internalType": "uint256",
          "name": "purchaseTokenAmount",
          "type": "uint256"
        },
        {
          "indexed": false,
          "internalType": "uint256",
          "name": "purchaceTokenDecimals",
          "type": "uint256"
        },
        {
          "indexed": false,
          "internalType": "address",
          "name": "lAND",
          "type": "address"
        },
        {
          "indexed": false,
          "internalType": "uint256",
          "name": "lANDamount",
          "type": "uint256"
        },
        {
          "indexed": false,
          "internalType": "uint256",
          "name": "lANDdecimals",
          "type": "uint256"
        }
      ],
      "name": "BuyTokensEvent",
      "type": "event"
    },
    {
      "anonymous": false,
      "inputs": [
        {
          "indexed": false,
          "internalType": "address",
          "name": "oldLAND",
          "type": "address"
        },
        {
          "indexed": false,
          "internalType": "address",
          "name": "newLAND",
          "type": "address"
        }
      ],
      "name": "LANDset",
      "type": "event"
    },
    {
      "anonymous": false,
      "inputs": [
        {
          "indexed": true,
          "internalType": "address",
          "name": "previousOwner",
          "type": "address"
        },
        {
          "indexed": true,
          "internalType": "address",
          "name": "newOwner",
          "type": "address"
        }
      ],
      "name": "OwnershipTransferred",
      "type": "event"
    },
    {
      "anonymous": false,
      "inputs": [
        {
          "indexed": false,
          "internalType": "address",
          "name": "oldOracle",
          "type": "address"
        },
        {
          "indexed": false,
          "internalType": "address",
          "name": "newOracle",
          "type": "address"
        },
        {
          "indexed": false,
          "internalType": "address",
          "name": "caller",
          "type": "address"
        }
      ],
      "name": "PriceOracleSet",
      "type": "event"
    },
    {
      "anonymous": false,
      "inputs": [
        {
          "indexed": false,
          "internalType": "bool",
          "name": "newStatus",
          "type": "bool"
        }
      ],
      "name": "StatusChangedTo",
      "type": "event"
    },
    {
      "inputs": [],
      "name": "DECIMALS",
      "outputs": [
        {
          "internalType": "uint256",
          "name": "",
          "type": "uint256"
        }
      ],
      "stateMutability": "view",
      "type": "function"
    },
    {
      "inputs": [],
      "name": "LAND",
      "outputs": [
        {
          "internalType": "address",
          "name": "",
          "type": "address"
        }
      ],
      "stateMutability": "view",
      "type": "function"
    },
    {
      "inputs": [],
      "name": "LANDpercent",
      "outputs": [
        {
          "internalType": "uint256",
          "name": "",
          "type": "uint256"
        }
      ],
      "stateMutability": "view",
      "type": "function"
    },
    {
      "inputs": [],
      "name": "PRICE_ORACLE",
      "outputs": [
        {
          "internalType": "address",
          "name": "",
          "type": "address"
        }
      ],
      "stateMutability": "view",
      "type": "function"
    },
    {
      "inputs": [],
      "name": "SECURITIES",
      "outputs": [
        {
          "internalType": "address",
          "name": "",
          "type": "address"
        }
      ],
      "stateMutability": "view",
      "type": "function"
    },
    {
      "inputs": [
        {
          "internalType": "address",
          "name": "token",
          "type": "address"
        }
      ],
      "name": "addAllowedToken",
      "outputs": [
        {
          "internalType": "bool",
          "name": "",
          "type": "bool"
        }
      ],
      "stateMutability": "nonpayable",
      "type": "function"
    },
    {
      "inputs": [
        {
          "internalType": "address",
          "name": "",
          "type": "address"
        }
      ],
      "name": "allowedToken",
      "outputs": [
        {
          "internalType": "bool",
          "name": "",
          "type": "bool"
        }
      ],
      "stateMutability": "view",
      "type": "function"
    },
    {
      "inputs": [
        {
          "internalType": "uint256",
          "name": "amountOfSecurities",
          "type": "uint256"
        },
        {
          "internalType": "address",
          "name": "stableCoinAddress",
          "type": "address"
        }
      ],
      "name": "buyToken",
      "outputs": [
        {
          "internalType": "bool",
          "name": "",
          "type": "bool"
        }
      ],
      "stateMutability": "nonpayable",
      "type": "function"
    },
    {
      "inputs": [
        {
          "internalType": "uint256",
          "name": "amountOfSecurities",
          "type": "uint256"
        },
        {
          "internalType": "address",
          "name": "stableCoinAddress",
          "type": "address"
        }
      ],
      "name": "buyTokenView",
      "outputs": [
        {
          "internalType": "uint256",
          "name": "amountOfStableCoin",
          "type": "uint256"
        },
        {
          "internalType": "uint256",
          "name": "amountOfLAND",
          "type": "uint256"
        },
        {
          "internalType": "uint256",
          "name": "amountOfSecurities_",
          "type": "uint256"
        }
      ],
      "stateMutability": "view",
      "type": "function"
    },
    {
      "inputs": [],
      "name": "changeStatus",
      "outputs": [],
      "stateMutability": "nonpayable",
      "type": "function"
    },
    {
      "inputs": [],
      "name": "getAllowedStableCoins",
      "outputs": [
        {
          "internalType": "address[]",
          "name": "",
          "type": "address[]"
        }
      ],
      "stateMutability": "view",
      "type": "function"
    },
    {
      "inputs": [
        {
          "internalType": "address",
          "name": "user",
          "type": "address"
        }
      ],
      "name": "getIsWhitelistedAddress",
      "outputs": [
        {
          "internalType": "bool",
          "name": "",
          "type": "bool"
        }
      ],
      "stateMutability": "view",
      "type": "function"
    },
    {
      "inputs": [],
      "name": "getTreasury",
      "outputs": [
        {
          "internalType": "address",
          "name": "",
          "type": "address"
        }
      ],
      "stateMutability": "view",
      "type": "function"
    },
    {
      "inputs": [],
      "name": "offeringSecurityToUSDPrice",
      "outputs": [
        {
          "internalType": "uint256",
          "name": "",
          "type": "uint256"
        }
      ],
      "stateMutability": "view",
      "type": "function"
    },
    {
      "inputs": [],
      "name": "owner",
      "outputs": [
        {
          "internalType": "address",
          "name": "",
          "type": "address"
        }
      ],
      "stateMutability": "view",
      "type": "function"
    },
    {
      "inputs": [],
      "name": "percentage",
      "outputs": [
        {
          "internalType": "uint256",
          "name": "",
          "type": "uint256"
        }
      ],
      "stateMutability": "view",
      "type": "function"
    },
    {
      "inputs": [
        {
          "internalType": "address",
          "name": "token",
          "type": "address"
        }
      ],
      "name": "removeTokenFromAllowed",
      "outputs": [
        {
          "internalType": "bool",
          "name": "",
          "type": "bool"
        }
      ],
      "stateMutability": "nonpayable",
      "type": "function"
    },
    {
      "inputs": [],
      "name": "renounceOwnership",
      "outputs": [],
      "stateMutability": "nonpayable",
      "type": "function"
    },
    {
      "inputs": [
        {
          "internalType": "uint256",
          "name": "amount",
          "type": "uint256"
        },
        {
          "internalType": "address",
          "name": "token",
          "type": "address"
        }
      ],
      "name": "sendBack",
      "outputs": [
        {
          "internalType": "bool",
          "name": "",
          "type": "bool"
        }
      ],
      "stateMutability": "nonpayable",
      "type": "function"
    },
    {
      "inputs": [
        {
          "internalType": "address",
          "name": "newLANDaddress",
          "type": "address"
        }
      ],
      "name": "setLAND",
      "outputs": [],
      "stateMutability": "nonpayable",
      "type": "function"
    },
    {
      "inputs": [
        {
          "internalType": "uint256",
          "name": "newLandPercent",
          "type": "uint256"
        }
      ],
      "name": "setLANDpercent",
      "outputs": [],
      "stateMutability": "nonpayable",
      "type": "function"
    },
    {
      "inputs": [
        {
          "internalType": "uint256",
          "name": "priceInUSD",
          "type": "uint256"
        }
      ],
      "name": "setPrice",
      "outputs": [],
      "stateMutability": "nonpayable",
      "type": "function"
    },
    {
      "inputs": [
        {
          "internalType": "address",
          "name": "newPriceOracle",
          "type": "address"
        }
      ],
      "name": "setPriceOracle",
      "outputs": [],
      "stateMutability": "nonpayable",
      "type": "function"
    },
    {
      "inputs": [
        {
          "internalType": "address",
          "name": "_treasury",
          "type": "address"
        }
      ],
      "name": "setTreasury",
      "outputs": [],
      "stateMutability": "nonpayable",
      "type": "function"
    },
    {
      "inputs": [
        {
          "internalType": "address",
          "name": "newWhitelist",
          "type": "address"
        }
      ],
      "name": "setWhitelist",
      "outputs": [],
      "stateMutability": "nonpayable",
      "type": "function"
    },
    {
      "inputs": [],
      "name": "status",
      "outputs": [
        {
          "internalType": "bool",
          "name": "",
          "type": "bool"
        }
      ],
      "stateMutability": "view",
      "type": "function"
    },
    {
      "inputs": [
        {
          "internalType": "address",
          "name": "newOwner",
          "type": "address"
        }
      ],
      "name": "transferOwnership",
      "outputs": [],
      "stateMutability": "nonpayable",
      "type": "function"
    },
    {
      "inputs": [],
      "name": "treasury",
      "outputs": [
        {
          "internalType": "address",
          "name": "",
          "type": "address"
        }
      ],
      "stateMutability": "view",
      "type": "function"
    },
    {
      "inputs": [],
      "name": "whitelistContract",
      "outputs": [
        {
          "internalType": "contract IWhitelist",
          "name": "",
          "type": "address"
        }
      ],
      "stateMutability": "view",
      "type": "function"
    }
  ],
  "bytecode": "0x608060405234801561000f575f5ffd5b50604051612a5f380380612a5f83398181016040528101906100319190610651565b805f73ffffffffffffffffffffffffffffffffffffffff168173ffffffffffffffffffffffffffffffffffffffff16036100a2575f6040517f1e4fbdf7000000000000000000000000000000000000000000000000000000008152600401610099919061072d565b60405180910390fd5b6100b1816103a260201b60201c565b5087600760016101000a81548173ffffffffffffffffffffffffffffffffffffffff021916908373ffffffffffffffffffffffffffffffffffffffff1602179055508060045f6101000a81548173ffffffffffffffffffffffffffffffffffffffff021916908373ffffffffffffffffffffffffffffffffffffffff1602179055508660015f6101000a81548173ffffffffffffffffffffffffffffffffffffffff021916908373ffffffffffffffffffffffffffffffffffffffff160217905550856005819055508460025f6101000a81548173ffffffffffffffffffffffffffffffffffffffff021916908373ffffffffffffffffffffffffffffffffffffffff1602179055508260035f6101000a81548173ffffffffffffffffffffffffffffffffffffffff021916908373ffffffffffffffffffffffffffffffffffffffff1602179055506032821115610235576040517ff92568b000000000000000000000000000000000000000000000000000000000815260040160405180910390fd5b81600681905550600160075f6101000a81548160ff0219169083151502179055505f5f90505b8451811015610394575f85828151811061027857610277610746565b5b6020026020010151905060085f8273ffffffffffffffffffffffffffffffffffffffff1673ffffffffffffffffffffffffffffffffffffffff1681526020019081526020015f205f9054906101000a900460ff1661038657600160085f8373ffffffffffffffffffffffffffffffffffffffff1673ffffffffffffffffffffffffffffffffffffffff1681526020019081526020015f205f6101000a81548160ff021916908315150217905550600981908060018154018082558091505060019003905f5260205f20015f9091909190916101000a81548173ffffffffffffffffffffffffffffffffffffffff021916908373ffffffffffffffffffffffffffffffffffffffff1602179055505b50808060010191505061025b565b505050505050505050610773565b5f5f5f9054906101000a900473ffffffffffffffffffffffffffffffffffffffff169050815f5f6101000a81548173ffffffffffffffffffffffffffffffffffffffff021916908373ffffffffffffffffffffffffffffffffffffffff1602179055508173ffffffffffffffffffffffffffffffffffffffff168173ffffffffffffffffffffffffffffffffffffffff167f8be0079c531659141344cd1fd0a4f28419497f9722a3daafe3b4186f6b6457e060405160405180910390a35050565b5f604051905090565b5f5ffd5b5f5ffd5b5f73ffffffffffffffffffffffffffffffffffffffff82169050919050565b5f61049d82610474565b9050919050565b6104ad81610493565b81146104b7575f5ffd5b50565b5f815190506104c8816104a4565b92915050565b5f819050919050565b6104e0816104ce565b81146104ea575f5ffd5b50565b5f815190506104fb816104d7565b92915050565b5f5ffd5b5f601f19601f8301169050919050565b7f4e487b71000000000000000000000000000000000000000000000000000000005f52604160045260245ffd5b61054b82610505565b810181811067ffffffffffffffff8211171561056a57610569610515565b5b80604052505050565b5f61057c610463565b90506105888282610542565b919050565b5f67ffffffffffffffff8211156105a7576105a6610515565b5b602082029050602081019050919050565b5f5ffd5b5f6105ce6105c98461058d565b610573565b905080838252602082019050602084028301858111156105f1576105f06105b8565b5b835b8181101561061a578061060688826104ba565b8452602084019350506020810190506105f3565b5050509392505050565b5f82601f83011261063857610637610501565b5b81516106488482602086016105bc565b91505092915050565b5f5f5f5f5f5f5f5f610100898b03121561066e5761066d61046c565b5b5f61067b8b828c016104ba565b985050602061068c8b828c016104ba565b975050604061069d8b828c016104ed565b96505060606106ae8b828c016104ba565b955050608089015167ffffffffffffffff8111156106cf576106ce610470565b5b6106db8b828c01610624565b94505060a06106ec8b828c016104ba565b93505060c06106fd8b828c016104ed565b92505060e061070e8b828c016104ba565b9150509295985092959890939650565b61072781610493565b82525050565b5f6020820190506107405f83018461071e565b92915050565b7f4e487b71000000000000000000000000000000000000000000000000000000005f52603260045260245ffd5b6122df806107805f395ff3fe608060405234801561000f575f5ffd5b50600436106101cd575f3560e01c806384900b0411610102578063c78ad77f116100a0578063f0f442601161006f578063f0f44260146104fb578063f2fde38b14610517578063fe7fe7fd14610533578063fe99f9dc14610551576101cd565b8063c78ad77f14610485578063ce89205b146104a3578063d765267e146104c1578063e457b2d5146104df576101cd565b80638df53e5a116100dc5780638df53e5a146103eb5780639134709e1461040957806391b7f5ed1461043957806391e89fda14610455576101cd565b806384900b0414610393578063854cff2f146103b15780638da5cb5b146103cd576101cd565b80633b19e84a1161016f57806361d027b31161014957806361d027b31461031f57806366ca225c1461033d578063715018a614610359578063756742f814610363576101cd565b80633b19e84a146102b55780634178617f146102d3578063530e784f14610303576101cd565b806316aee1bd116101ab57806316aee1bd146102295780631d37940914610247578063200d2ed2146102795780632e0f262514610297576101cd565b8063038aabcf146101d1578063085634ec146102015780630a19399a1461020b575b5f5ffd5b6101eb60048036038101906101e69190611a67565b610581565b6040516101f89190611abf565b60405180910390f35b6102096105bf565b005b610213610636565b6040516102209190611ae7565b60405180910390f35b61023161065b565b60405161023e9190611b0f565b60405180910390f35b610261600480360381019061025c9190611a67565b610664565b60405161027093929190611b28565b60405180910390f35b610281610aa1565b60405161028e9190611abf565b60405180910390f35b61029f610ab3565b6040516102ac9190611b0f565b60405180910390f35b6102bd610abf565b6040516102ca9190611ae7565b60405180910390f35b6102ed60048036038101906102e89190611b5d565b610ae7565b6040516102fa9190611abf565b60405180910390f35b61031d60048036038101906103189190611b5d565b610c3a565b005b610327610ce6565b6040516103349190611ae7565b60405180910390f35b61035760048036038101906103529190611b5d565b610d0b565b005b610361610db5565b005b61037d60048036038101906103789190611b5d565b610dc8565b60405161038a9190611abf565b60405180910390f35b61039b610de5565b6040516103a89190611be3565b60405180910390f35b6103cb60048036038101906103c69190611b5d565b610e0b565b005b6103d5610e57565b6040516103e29190611ae7565b60405180910390f35b6103f3610e7e565b6040516104009190611ae7565b60405180910390f35b610423600480360381019061041e9190611a67565b610ea3565b6040516104309190611abf565b60405180910390f35b610453600480360381019061044e9190611bfc565b61118c565b005b61046f600480360381019061046a9190611b5d565b61119e565b60405161047c9190611abf565b60405180910390f35b61048d61140c565b60405161049a9190611b0f565b60405180910390f35b6104ab611412565b6040516104b89190611ae7565b60405180910390f35b6104c9611437565b6040516104d69190611cde565b60405180910390f35b6104f960048036038101906104f49190611bfc565b6114c2565b005b61051560048036038101906105109190611b5d565b61150f565b005b610531600480360381019061052c9190611b5d565b6115bf565b005b61053b611643565b6040516105489190611b0f565b60405180910390f35b61056b60048036038101906105669190611b5d565b611649565b6040516105789190611abf565b60405180910390f35b5f61058a6116eb565b6105b533848473ffffffffffffffffffffffffffffffffffffffff166117729092919063ffffffff16565b6001905092915050565b6105c76116eb565b60075f9054906101000a900460ff161560075f6101000a81548160ff0219169083151502179055507f86ef200ba23f783d620bfb90e5e4ba7530c331af8fe1ed3098b329a903faff1b60075f9054906101000a900460ff1660405161062c9190611abf565b60405180910390a1565b60025f9054906101000a900473ffffffffffffffffffffffffffffffffffffffff1681565b5f600654905090565b5f5f5f5f85036106a0576040517f9cf8540c00000000000000000000000000000000000000000000000000000000815260040160405180910390fd5b60085f8573ffffffffffffffffffffffffffffffffffffffff1673ffffffffffffffffffffffffffffffffffffffff1681526020019081526020015f205f9054906101000a900460ff1661072b57836040517f2ef1fd620000000000000000000000000000000000000000000000000000000081526004016107229190611ae7565b60405180910390fd5b5f60025f9054906101000a900473ffffffffffffffffffffffffffffffffffffffff1673ffffffffffffffffffffffffffffffffffffffff16633b377dcf610348875f6040518463ffffffff1660e01b815260040161078c93929190611d37565b6040805180830381865afa1580156107a6573d5f5f3e3d5ffd5b505050506040513d601f19601f820116820180604052508101906107ca9190611daa565b9150505f810361081157846040517f4469fb1c0000000000000000000000000000000000000000000000000000000081526004016108089190611ae7565b60405180910390fd5b5f60025f9054906101000a900473ffffffffffffffffffffffffffffffffffffffff1673ffffffffffffffffffffffffffffffffffffffff166330f08abd6040518163ffffffff1660e01b8152600401602060405180830381865afa15801561087c573d5f5f3e3d5ffd5b505050506040513d601f19601f820116820180604052508101906108a09190611de8565b90505f600554886108b19190611e40565b90505f606460065460646108c59190611e81565b836108d09190611e40565b6108da9190611ee1565b9050670de0b6b3a76400008484600a6108f39190612040565b836108fe9190611e40565b6109089190611ee1565b6109129190611ee1565b96505f6064600654846109259190611e40565b61092f9190611ee1565b90505f60025f9054906101000a900473ffffffffffffffffffffffffffffffffffffffff1673ffffffffffffffffffffffffffffffffffffffff16633b377dcf61034860035f9054906101000a900473ffffffffffffffffffffffffffffffffffffffff165f6040518463ffffffff1660e01b81526004016109b393929190611d37565b6040805180830381865afa1580156109cd573d5f5f3e3d5ffd5b505050506040513d601f19601f820116820180604052508101906109f19190611daa565b9150505f8103610a595760035f9054906101000a900473ffffffffffffffffffffffffffffffffffffffff166040517f4469fb1c000000000000000000000000000000000000000000000000000000008152600401610a509190611ae7565b60405180910390fd5b670de0b6b3a76400008186600a610a709190612040565b84610a7b9190611e40565b610a859190611ee1565b610a8f9190611ee1565b97508a96505050505050509250925092565b60075f9054906101000a900460ff1681565b670de0b6b3a764000081565b5f60045f9054906101000a900473ffffffffffffffffffffffffffffffffffffffff16905090565b5f610af06116eb565b60085f8373ffffffffffffffffffffffffffffffffffffffff1673ffffffffffffffffffffffffffffffffffffffff1681526020019081526020015f205f9054906101000a900460ff1615610b7c57816040517f412987be000000000000000000000000000000000000000000000000000000008152600401610b739190611ae7565b60405180910390fd5b600160085f8473ffffffffffffffffffffffffffffffffffffffff1673ffffffffffffffffffffffffffffffffffffffff1681526020019081526020015f205f6101000a81548160ff021916908315150217905550600982908060018154018082558091505060019003905f5260205f20015f9091909190916101000a81548173ffffffffffffffffffffffffffffffffffffffff021916908373ffffffffffffffffffffffffffffffffffffffff16021790555060019050919050565b610c426116eb565b5f60025f9054906101000a900473ffffffffffffffffffffffffffffffffffffffff1690508160025f6101000a81548173ffffffffffffffffffffffffffffffffffffffff021916908373ffffffffffffffffffffffffffffffffffffffff1602179055507f45fe2576c524e253513eeb3446e7619391aea30f4b6d8cf9809acccd7df542a6818333604051610cda9392919061208a565b60405180910390a15050565b60045f9054906101000a900473ffffffffffffffffffffffffffffffffffffffff1681565b610d136116eb565b5f60035f9054906101000a900473ffffffffffffffffffffffffffffffffffffffff1690508160035f6101000a81548173ffffffffffffffffffffffffffffffffffffffff021916908373ffffffffffffffffffffffffffffffffffffffff1602179055507fd7ab41cb30ff7e560aa8f7762a1d3213511c2126e605583b40f211e4ad0fa7618183604051610da99291906120bf565b60405180910390a15050565b610dbd6116eb565b610dc65f6117f1565b565b6008602052805f5260405f205f915054906101000a900460ff1681565b600760019054906101000a900473ffffffffffffffffffffffffffffffffffffffff1681565b610e136116eb565b80600760016101000a81548173ffffffffffffffffffffffffffffffffffffffff021916908373ffffffffffffffffffffffffffffffffffffffff16021790555050565b5f5f5f9054906101000a900473ffffffffffffffffffffffffffffffffffffffff16905090565b60015f9054906101000a900473ffffffffffffffffffffffffffffffffffffffff1681565b5f60075f9054906101000a900460ff16610ee9576040517fff76d12f00000000000000000000000000000000000000000000000000000000815260040160405180910390fd5b600760019054906101000a900473ffffffffffffffffffffffffffffffffffffffff1673ffffffffffffffffffffffffffffffffffffffff16633af32abf336040518263ffffffff1660e01b8152600401610f449190611ae7565b602060405180830381865afa158015610f5f573d5f5f3e3d5ffd5b505050506040513d601f19601f82011682018060405250810190610f8391906120e6565b610fc457336040517f0504a20d000000000000000000000000000000000000000000000000000000008152600401610fbb9190611ae7565b60405180910390fd5b5f5f610fd08585610664565b50915091506110233360045f9054906101000a900473ffffffffffffffffffffffffffffffffffffffff16848773ffffffffffffffffffffffffffffffffffffffff166118b2909392919063ffffffff16565b6110923360045f9054906101000a900473ffffffffffffffffffffffffffffffffffffffff168360035f9054906101000a900473ffffffffffffffffffffffffffffffffffffffff1673ffffffffffffffffffffffffffffffffffffffff166118b2909392919063ffffffff16565b6110e761109d610e57565b338760015f9054906101000a900473ffffffffffffffffffffffffffffffffffffffff1673ffffffffffffffffffffffffffffffffffffffff166118b2909392919063ffffffff16565b7fcc8d9e2e9e36b5aac867220d561daa8424fe50ced08917be294b4f55168caf8f3360015f9054906101000a900473ffffffffffffffffffffffffffffffffffffffff1687600554670de0b6b3a76400008988601260035f9054906101000a900473ffffffffffffffffffffffffffffffffffffffff168a60126040516111789b9a9998979695949392919061214a565b60405180910390a160019250505092915050565b6111946116eb565b8060058190555050565b5f6111a76116eb565b60085f8373ffffffffffffffffffffffffffffffffffffffff1673ffffffffffffffffffffffffffffffffffffffff1681526020019081526020015f205f9054906101000a900460ff1661123257816040517f2ef1fd620000000000000000000000000000000000000000000000000000000081526004016112299190611ae7565b60405180910390fd5b5f60085f8473ffffffffffffffffffffffffffffffffffffffff1673ffffffffffffffffffffffffffffffffffffffff1681526020019081526020015f205f6101000a81548160ff0219169083151502179055505f5f90505b600980549050811015611402578273ffffffffffffffffffffffffffffffffffffffff16600982815481106112c3576112c26121f3565b5b905f5260205f20015f9054906101000a900473ffffffffffffffffffffffffffffffffffffffff1673ffffffffffffffffffffffffffffffffffffffff16036113f5576009600160098054905061131a9190611e81565b8154811061132b5761132a6121f3565b5b905f5260205f20015f9054906101000a900473ffffffffffffffffffffffffffffffffffffffff1660098281548110611367576113666121f3565b5b905f5260205f20015f6101000a81548173ffffffffffffffffffffffffffffffffffffffff021916908373ffffffffffffffffffffffffffffffffffffffff16021790555060098054806113be576113bd612220565b5b600190038181905f5260205f20015f6101000a81549073ffffffffffffffffffffffffffffffffffffffff02191690559055611402565b808060010191505061128b565b5060019050919050565b60065481565b60035f9054906101000a900473ffffffffffffffffffffffffffffffffffffffff1681565b606060098054806020026020016040519081016040528092919081815260200182805480156114b857602002820191905f5260205f20905b815f9054906101000a900473ffffffffffffffffffffffffffffffffffffffff1673ffffffffffffffffffffffffffffffffffffffff168152602001906001019080831161146f575b5050505050905090565b6114ca6116eb565b6032811115611505576040517ff92568b000000000000000000000000000000000000000000000000000000000815260040160405180910390fd5b8060068190555050565b6115176116eb565b5f73ffffffffffffffffffffffffffffffffffffffff168173ffffffffffffffffffffffffffffffffffffffff160361157c576040517f8579befe00000000000000000000000000000000000000000000000000000000815260040160405180910390fd5b8060045f6101000a81548173ffffffffffffffffffffffffffffffffffffffff021916908373ffffffffffffffffffffffffffffffffffffffff16021790555050565b6115c76116eb565b5f73ffffffffffffffffffffffffffffffffffffffff168173ffffffffffffffffffffffffffffffffffffffff1603611637575f6040517f1e4fbdf700000000000000000000000000000000000000000000000000000000815260040161162e9190611ae7565b60405180910390fd5b611640816117f1565b50565b60055481565b5f600760019054906101000a900473ffffffffffffffffffffffffffffffffffffffff1673ffffffffffffffffffffffffffffffffffffffff16633af32abf836040518263ffffffff1660e01b81526004016116a59190611ae7565b602060405180830381865afa1580156116c0573d5f5f3e3d5ffd5b505050506040513d601f19601f820116820180604052508101906116e491906120e6565b9050919050565b6116f3611934565b73ffffffffffffffffffffffffffffffffffffffff16611711610e57565b73ffffffffffffffffffffffffffffffffffffffff161461177057611734611934565b6040517f118cdaa70000000000000000000000000000000000000000000000000000000081526004016117679190611ae7565b60405180910390fd5b565b6117ec838473ffffffffffffffffffffffffffffffffffffffff1663a9059cbb85856040516024016117a592919061224d565b604051602081830303815290604052915060e01b6020820180517bffffffffffffffffffffffffffffffffffffffffffffffffffffffff838183161783525050505061193b565b505050565b5f5f5f9054906101000a900473ffffffffffffffffffffffffffffffffffffffff169050815f5f6101000a81548173ffffffffffffffffffffffffffffffffffffffff021916908373ffffffffffffffffffffffffffffffffffffffff1602179055508173ffffffffffffffffffffffffffffffffffffffff168173ffffffffffffffffffffffffffffffffffffffff167f8be0079c531659141344cd1fd0a4f28419497f9722a3daafe3b4186f6b6457e060405160405180910390a35050565b61192e848573ffffffffffffffffffffffffffffffffffffffff166323b872dd8686866040516024016118e793929190612274565b604051602081830303815290604052915060e01b6020820180517bffffffffffffffffffffffffffffffffffffffffffffffffffffffff838183161783525050505061193b565b50505050565b5f33905090565b5f5f60205f8451602086015f885af18061195a576040513d5f823e3d81fd5b3d92505f519150505f821461197357600181141561198e565b5f8473ffffffffffffffffffffffffffffffffffffffff163b145b156119d057836040517f5274afe70000000000000000000000000000000000000000000000000000000081526004016119c79190611ae7565b60405180910390fd5b50505050565b5f5ffd5b5f819050919050565b6119ec816119da565b81146119f6575f5ffd5b50565b5f81359050611a07816119e3565b92915050565b5f73ffffffffffffffffffffffffffffffffffffffff82169050919050565b5f611a3682611a0d565b9050919050565b611a4681611a2c565b8114611a50575f5ffd5b50565b5f81359050611a6181611a3d565b92915050565b5f5f60408385031215611a7d57611a7c6119d6565b5b5f611a8a858286016119f9565b9250506020611a9b85828601611a53565b9150509250929050565b5f8115159050919050565b611ab981611aa5565b82525050565b5f602082019050611ad25f830184611ab0565b92915050565b611ae181611a2c565b82525050565b5f602082019050611afa5f830184611ad8565b92915050565b611b09816119da565b82525050565b5f602082019050611b225f830184611b00565b92915050565b5f606082019050611b3b5f830186611b00565b611b486020830185611b00565b611b556040830184611b00565b949350505050565b5f60208284031215611b7257611b716119d6565b5b5f611b7f84828501611a53565b91505092915050565b5f819050919050565b5f611bab611ba6611ba184611a0d565b611b88565b611a0d565b9050919050565b5f611bbc82611b91565b9050919050565b5f611bcd82611bb2565b9050919050565b611bdd81611bc3565b82525050565b5f602082019050611bf65f830184611bd4565b92915050565b5f60208284031215611c1157611c106119d6565b5b5f611c1e848285016119f9565b91505092915050565b5f81519050919050565b5f82825260208201905092915050565b5f819050602082019050919050565b611c5981611a2c565b82525050565b5f611c6a8383611c50565b60208301905092915050565b5f602082019050919050565b5f611c8c82611c27565b611c968185611c31565b9350611ca183611c41565b805f5b83811015611cd1578151611cb88882611c5f565b9750611cc383611c76565b925050600181019050611ca4565b5085935050505092915050565b5f6020820190508181035f830152611cf68184611c82565b905092915050565b5f819050919050565b5f611d21611d1c611d1784611cfe565b611b88565b6119da565b9050919050565b611d3181611d07565b82525050565b5f606082019050611d4a5f830186611d28565b611d576020830185611ad8565b611d646040830184611ad8565b949350505050565b611d7581611aa5565b8114611d7f575f5ffd5b50565b5f81519050611d9081611d6c565b92915050565b5f81519050611da4816119e3565b92915050565b5f5f60408385031215611dc057611dbf6119d6565b5b5f611dcd85828601611d82565b9250506020611dde85828601611d96565b9150509250929050565b5f60208284031215611dfd57611dfc6119d6565b5b5f611e0a84828501611d96565b91505092915050565b7f4e487b71000000000000000000000000000000000000000000000000000000005f52601160045260245ffd5b5f611e4a826119da565b9150611e55836119da565b9250828202611e63816119da565b91508282048414831517611e7a57611e79611e13565b5b5092915050565b5f611e8b826119da565b9150611e96836119da565b9250828203905081811115611eae57611ead611e13565b5b92915050565b7f4e487b71000000000000000000000000000000000000000000000000000000005f52601260045260245ffd5b5f611eeb826119da565b9150611ef6836119da565b925082611f0657611f05611eb4565b5b828204905092915050565b5f8160011c9050919050565b5f5f8291508390505b6001851115611f6657808604811115611f4257611f41611e13565b5b6001851615611f515780820291505b8081029050611f5f85611f11565b9450611f26565b94509492505050565b5f82611f7e5760019050612039565b81611f8b575f9050612039565b8160018114611fa15760028114611fab57611fda565b6001915050612039565b60ff841115611fbd57611fbc611e13565b5b8360020a915084821115611fd457611fd3611e13565b5b50612039565b5060208310610133831016604e8410600b841016171561200f5782820a90508381111561200a57612009611e13565b5b612039565b61201c8484846001611f1d565b9250905081840481111561203357612032611e13565b5b81810290505b9392505050565b5f61204a826119da565b9150612055836119da565b92506120827fffffffffffffffffffffffffffffffffffffffffffffffffffffffffffffffff8484611f6f565b905092915050565b5f60608201905061209d5f830186611ad8565b6120aa6020830185611ad8565b6120b76040830184611ad8565b949350505050565b5f6040820190506120d25f830185611ad8565b6120df6020830184611ad8565b9392505050565b5f602082840312156120fb576120fa6119d6565b5b5f61210884828501611d82565b91505092915050565b5f819050919050565b5f61213461212f61212a84612111565b611b88565b6119da565b9050919050565b6121448161211a565b82525050565b5f6101608201905061215e5f83018e611ad8565b61216b602083018d611ad8565b612178604083018c611b00565b612185606083018b611b00565b612192608083018a611b00565b61219f60a0830189611ad8565b6121ac60c0830188611b00565b6121b960e083018761213b565b6121c7610100830186611ad8565b6121d5610120830185611b00565b6121e361014083018461213b565b9c9b505050505050505050505050565b7f4e487b71000000000000000000000000000000000000000000000000000000005f52603260045260245ffd5b7f4e487b71000000000000000000000000000000000000000000000000000000005f52603160045260245ffd5b5f6040820190506122605f830185611ad8565b61226d6020830184611b00565b9392505050565b5f6060820190506122875f830186611ad8565b6122946020830185611ad8565b6122a16040830184611b00565b94935050505056fea26469706673582212208bdf4304f4178c8d31f1a67a079cf2f857a6ef17a92fb812d6fdc75e0a40175564736f6c634300081c0033",
  "linkReferences": {},
  "deployedLinkReferences": {},
  "immutableReferences": {},
  "inputSourceName": "project/contracts/LandshareBuySale.sol",
  "buildInfoId": "solc-0_8_28-815250e3857ee7b9c81c5b16c559d8a14911d932"
}