{
  "_format": "hh3-artifact-1",
  "contractName": "Whitelist",
  "sourceName": "contracts/Whitelist.sol",
  "abi": [
    {
      "inputs": [
        {
          "internalType": "address",
          "name": "initialOwner",
          "type": "address"
        }
      ],
      "stateMutability": "nonpayable",
      "type": "constructor"
    },
    {
      "inputs": [
        {
          "internalType": "address",
          "name": "owner",
          "type": "address"
        }
      ],
      "name": "OwnableInvalidOwner",
      "type": "error"
    },
    {
      "inputs": [
        {
          "internalType": "address",
          "name": "account",
          "type": "address"
        }
      ],
      "name": "OwnableUnauthorizedAccount",
      "type": "error"
    },
    {
      "anonymous": false,
      "inputs": [
        {
          "indexed": true,
          "internalType": "address",
          "name": "user",
          "type": "address"
        }
      ],
      "name": "AddedToWhitelist",
      "type": "event"
    },
    {
      "anonymous": false,
      "inputs": [
        {
          "indexed": true,
          "internalType": "address",
          "name": "manager",
          "type": "address"
        }
      ],
      "name": "ManagerAdded",
      "type": "event"
    },
    {
      "anonymous": false,
      "inputs": [
        {
          "indexed": true,
          "internalType": "address",
          "name": "manager",
          "type": "address"
        }
      ],
      "name": "ManagerRemoved",
      "type": "event"
    },
    {
      "anonymous": false,
      "inputs": [
        {
          "indexed": true,
          "internalType": "address",
          "name": "previousOwner",
          "type": "address"
        },
        {
          "indexed": true,
          "internalType": "address",
          "name": "newOwner",
          "type": "address"
        }
      ],
      "name": "OwnershipTransferred",
      "type": "event"
    },
    {
      "anonymous": false,
      "inputs": [
        {
          "indexed": true,
          "internalType": "address",
          "name": "user",
          "type": "address"
        }
      ],
      "name": "RemovedFromWhitelist",
      "type": "event"
    },
    {
      "inputs": [
        {
          "internalType": "address",
          "name": "manager",
          "type": "address"
        }
      ],
      "name": "addManager",
      "outputs": [],
      "stateMutability": "nonpayable",
      "type": "function"
    },
    {
      "inputs": [
        {
          "internalType": "address[]",
          "name": "users",
          "type": "address[]"
        }
      ],
      "name": "addToWhitelist",
      "outputs": [],
      "stateMutability": "nonpayable",
      "type": "function"
    },
    {
      "inputs": [
        {
          "internalType": "address",
          "name": "user",
          "type": "address"
        }
      ],
      "name": "isManager",
      "outputs": [
        {
          "internalType": "bool",
          "name": "",
          "type": "bool"
        }
      ],
      "stateMutability": "view",
      "type": "function"
    },
    {
      "inputs": [
        {
          "internalType": "address",
          "name": "user",
          "type": "address"
        }
      ],
      "name": "isWhitelisted",
      "outputs": [
        {
          "internalType": "bool",
          "name": "",
          "type": "bool"
        }
      ],
      "stateMutability": "view",
      "type": "function"
    },
    {
      "inputs": [],
      "name": "owner",
      "outputs": [
        {
          "internalType": "address",
          "name": "",
          "type": "address"
        }
      ],
      "stateMutability": "view",
      "type": "function"
    },
    {
      "inputs": [
        {
          "internalType": "address[]",
          "name": "users",
          "type": "address[]"
        }
      ],
      "name": "removeFromWhitelist",
      "outputs": [],
      "stateMutability": "nonpayable",
      "type": "function"
    },
    {
      "inputs": [
        {
          "internalType": "address",
          "name": "manager",
          "type": "address"
        }
      ],
      "name": "removeManager",
      "outputs": [],
      "stateMutability": "nonpayable",
      "type": "function"
    },
    {
      "inputs": [],
      "name": "renounceOwnership",
      "outputs": [],
      "stateMutability": "nonpayable",
      "type": "function"
    },
    {
      "inputs": [
        {
          "internalType": "address",
          "name": "newOwner",
          "type": "address"
        }
      ],
      "name": "transferOwnership",
      "outputs": [],
      "stateMutability": "nonpayable",
      "type": "function"
    }
  ],
  "bytecode": "0x608060405234801561000f575f5ffd5b50604051610f40380380610f40833981810160405281019061003191906101d7565b805f73ffffffffffffffffffffffffffffffffffffffff168173ffffffffffffffffffffffffffffffffffffffff16036100a2575f6040517f1e4fbdf70000000000000000000000000000000000000000000000000000000081526004016100999190610211565b60405180910390fd5b6100b1816100b860201b60201c565b505061022a565b5f5f5f9054906101000a900473ffffffffffffffffffffffffffffffffffffffff169050815f5f6101000a81548173ffffffffffffffffffffffffffffffffffffffff021916908373ffffffffffffffffffffffffffffffffffffffff1602179055508173ffffffffffffffffffffffffffffffffffffffff168173ffffffffffffffffffffffffffffffffffffffff167f8be0079c531659141344cd1fd0a4f28419497f9722a3daafe3b4186f6b6457e060405160405180910390a35050565b5f5ffd5b5f73ffffffffffffffffffffffffffffffffffffffff82169050919050565b5f6101a68261017d565b9050919050565b6101b68161019c565b81146101c0575f5ffd5b50565b5f815190506101d1816101ad565b92915050565b5f602082840312156101ec576101eb610179565b5b5f6101f9848285016101c3565b91505092915050565b61020b8161019c565b82525050565b5f6020820190506102245f830184610202565b92915050565b610d09806102375f395ff3fe608060405234801561000f575f5ffd5b5060043610610091575f3560e01c80637f649783116100645780637f649783146101075780638da5cb5b14610123578063ac18de4314610141578063f2fde38b1461015d578063f3ae24151461017957610091565b80632d06177a146100955780633af32abf146100b1578063548db174146100e1578063715018a6146100fd575b5f5ffd5b6100af60048036038101906100aa9190610a2c565b6101a9565b005b6100cb60048036038101906100c69190610a2c565b6102d6565b6040516100d89190610a71565b60405180910390f35b6100fb60048036038101906100f69190610aeb565b610328565b005b6101056104b4565b005b610121600480360381019061011c9190610aeb565b6104c7565b005b61012b610653565b6040516101389190610b45565b60405180910390f35b61015b60048036038101906101569190610a2c565b61067a565b005b61017760048036038101906101729190610a2c565b6107a5565b005b610193600480360381019061018e9190610a2c565b610829565b6040516101a09190610a71565b60405180910390f35b6101b161087b565b60025f8273ffffffffffffffffffffffffffffffffffffffff1673ffffffffffffffffffffffffffffffffffffffff1681526020019081526020015f205f9054906101000a900460ff161561023b576040517f08c379a000000000000000000000000000000000000000000000000000000000815260040161023290610bb8565b60405180910390fd5b600160025f8373ffffffffffffffffffffffffffffffffffffffff1673ffffffffffffffffffffffffffffffffffffffff1681526020019081526020015f205f6101000a81548160ff0219169083151502179055508073ffffffffffffffffffffffffffffffffffffffff167f3b4a40cccf2058c593542587329dd385be4f0b588db5471fbd9598e56dd7093a60405160405180910390a250565b5f60015f8373ffffffffffffffffffffffffffffffffffffffff1673ffffffffffffffffffffffffffffffffffffffff1681526020019081526020015f205f9054906101000a900460ff169050919050565b610330610653565b73ffffffffffffffffffffffffffffffffffffffff163373ffffffffffffffffffffffffffffffffffffffff16148061036e575061036d33610829565b5b6103ad576040517f08c379a00000000000000000000000000000000000000000000000000000000081526004016103a490610c20565b60405180910390fd5b5f5f90505b828290508110156104af575f60015f8585858181106103d4576103d3610c3e565b5b90506020020160208101906103e99190610a2c565b73ffffffffffffffffffffffffffffffffffffffff1673ffffffffffffffffffffffffffffffffffffffff1681526020019081526020015f205f6101000a81548160ff02191690831515021790555082828281811061044b5761044a610c3e565b5b90506020020160208101906104609190610a2c565b73ffffffffffffffffffffffffffffffffffffffff167fcdd2e9b91a56913d370075169cefa1602ba36be5301664f752192bb1709df75760405160405180910390a280806001019150506103b2565b505050565b6104bc61087b565b6104c55f610902565b565b6104cf610653565b73ffffffffffffffffffffffffffffffffffffffff163373ffffffffffffffffffffffffffffffffffffffff16148061050d575061050c33610829565b5b61054c576040517f08c379a000000000000000000000000000000000000000000000000000000000815260040161054390610c20565b60405180910390fd5b5f5f90505b8282905081101561064e576001805f85858581811061057357610572610c3e565b5b90506020020160208101906105889190610a2c565b73ffffffffffffffffffffffffffffffffffffffff1673ffffffffffffffffffffffffffffffffffffffff1681526020019081526020015f205f6101000a81548160ff0219169083151502179055508282828181106105ea576105e9610c3e565b5b90506020020160208101906105ff9190610a2c565b73ffffffffffffffffffffffffffffffffffffffff167fa850ae9193f515cbae8d35e8925bd2be26627fc91bce650b8652ed254e9cab0360405160405180910390a28080600101915050610551565b505050565b5f5f5f9054906101000a900473ffffffffffffffffffffffffffffffffffffffff16905090565b61068261087b565b60025f8273ffffffffffffffffffffffffffffffffffffffff1673ffffffffffffffffffffffffffffffffffffffff1681526020019081526020015f205f9054906101000a900460ff1661070b576040517f08c379a000000000000000000000000000000000000000000000000000000000815260040161070290610cb5565b60405180910390fd5b5f60025f8373ffffffffffffffffffffffffffffffffffffffff1673ffffffffffffffffffffffffffffffffffffffff1681526020019081526020015f205f6101000a81548160ff0219169083151502179055508073ffffffffffffffffffffffffffffffffffffffff167fef69f7d97228658c92417be1b16b19058315de71fecb435d07b7d23728b6bd3160405160405180910390a250565b6107ad61087b565b5f73ffffffffffffffffffffffffffffffffffffffff168173ffffffffffffffffffffffffffffffffffffffff160361081d575f6040517f1e4fbdf70000000000000000000000000000000000000000000000000000000081526004016108149190610b45565b60405180910390fd5b61082681610902565b50565b5f60025f8373ffffffffffffffffffffffffffffffffffffffff1673ffffffffffffffffffffffffffffffffffffffff1681526020019081526020015f205f9054906101000a900460ff169050919050565b6108836109c3565b73ffffffffffffffffffffffffffffffffffffffff166108a1610653565b73ffffffffffffffffffffffffffffffffffffffff1614610900576108c46109c3565b6040517f118cdaa70000000000000000000000000000000000000000000000000000000081526004016108f79190610b45565b60405180910390fd5b565b5f5f5f9054906101000a900473ffffffffffffffffffffffffffffffffffffffff169050815f5f6101000a81548173ffffffffffffffffffffffffffffffffffffffff021916908373ffffffffffffffffffffffffffffffffffffffff1602179055508173ffffffffffffffffffffffffffffffffffffffff168173ffffffffffffffffffffffffffffffffffffffff167f8be0079c531659141344cd1fd0a4f28419497f9722a3daafe3b4186f6b6457e060405160405180910390a35050565b5f33905090565b5f5ffd5b5f5ffd5b5f73ffffffffffffffffffffffffffffffffffffffff82169050919050565b5f6109fb826109d2565b9050919050565b610a0b816109f1565b8114610a15575f5ffd5b50565b5f81359050610a2681610a02565b92915050565b5f60208284031215610a4157610a406109ca565b5b5f610a4e84828501610a18565b91505092915050565b5f8115159050919050565b610a6b81610a57565b82525050565b5f602082019050610a845f830184610a62565b92915050565b5f5ffd5b5f5ffd5b5f5ffd5b5f5f83601f840112610aab57610aaa610a8a565b5b8235905067ffffffffffffffff811115610ac857610ac7610a8e565b5b602083019150836020820283011115610ae457610ae3610a92565b5b9250929050565b5f5f60208385031215610b0157610b006109ca565b5b5f83013567ffffffffffffffff811115610b1e57610b1d6109ce565b5b610b2a85828601610a96565b92509250509250929050565b610b3f816109f1565b82525050565b5f602082019050610b585f830184610b36565b92915050565b5f82825260208201905092915050565b7f416c72656164792061206d616e616765720000000000000000000000000000005f82015250565b5f610ba2601183610b5e565b9150610bad82610b6e565b602082019050919050565b5f6020820190508181035f830152610bcf81610b96565b9050919050565b7f43616c6c6572206973206e6f74206f776e6572206f72206d616e6167657200005f82015250565b5f610c0a601e83610b5e565b9150610c1582610bd6565b602082019050919050565b5f6020820190508181035f830152610c3781610bfe565b9050919050565b7f4e487b71000000000000000000000000000000000000000000000000000000005f52603260045260245ffd5b7f4e6f742061206d616e61676572000000000000000000000000000000000000005f82015250565b5f610c9f600d83610b5e565b9150610caa82610c6b565b602082019050919050565b5f6020820190508181035f830152610ccc81610c93565b905091905056fea26469706673582212206671a501fd7428dd326a412216c8698daedc3883e43ccf5cdd98ef27aed2063864736f6c634300081c0033",
  "linkReferences": {},
  "deployedLinkReferences": {},
  "immutableReferences": {},
  "inputSourceName": "project/contracts/Whitelist.sol",
  "buildInfoId": "solc-0_8_28-0e92afd14fb926678d327192c2965b39d7b147a4"
}